:020000040800F2
:100000002823002041030008992B0008EF02000874
:10001000EF020008E9060008D132000800000000E5
:10002000000000000000000000000000A12B0008FC
:1000300001090008000000003B020008A92B00088D
:100040005B0300085B0300085B0300085B03000818
:100050005B0300085B0300085B0300085B03000808
:100060005B0300085B0300085B0300085B030008F8
:100070005B0300085B0300085B0300085B030008E8
:100080005B0300085B0300085B0300085B030008D8
:100090005B0300085B0300085B0300085B030008C8
:1000A0005B0300085B0300085B0300085B030008B8
:1000B000312D00085B0300085B0300085B030008A8
:1000C0005B0300085B0300085B0300085B03000898
:1000D0005B030008F9310008C13200085B03000827
:1000E0005B0300085B0300085B0300085B03000878
:1000F0005B0300085B0300085B0300085B03000868
:100100005B0300085B0300085B0300085B03000857
:100110005B0300085B0300085B0300085B03000847
:10012000F10600085B0300085B0300085B0300089E
:100130005B0300085B0300085B0300085B03000827
:100140005B0300085B0300085B0300085B03000817
:100150005B0300085B0300085B0300085B03000807
:100160005B0300085B0300085B0300085B030008F7
:100170005B0300085B0300085B030008000000004D
:100180005B0300085B0300085B0300085B030008D7
:100190005B0300085B0300085B0300085B030008C7
:1001A0005B0300085B0300085B0300085B030008B7
:1001B0005B0300085B0300085B0300085B030008A7
:1001C0005B0300085B030008000000005B030008FD
:1001D0005B0300085B0300085B0300085B03000887
:1001E0005B0300085B0300085B0300085B03000877
:1001F0005B0300085B030008DFF80CD000F08EF909
:10020000004800470906000828230020EFF310806B
:1002100072B6704780F310887047434A1368012B09
:1002200004D04FF001031360404A1060404A11604F
:1002300040484FF0805101607047EFF3108272B672
:100240003948016851B34FF0000101603748016837
:1002500091B1EFF309811EF0100F08BF21ED108B53
:1002600021E9F00F4FF000041EF0100F08BF012429
:1002700041F8044D006801602D490968096808C902
:10028000B1E8F00F002B18BFB1EC108B81F3098897
:100290004EF0100E002B18BF2EF0100E82F31088B7
:1002A0004EF0040E704722490860EFF3148222F0EA
:1002B000040282F314881D494FF0000008601A49B7
:1002C0004FF0010008601C484FF47F01D0F8002077
:1002D00041EA0201016017484FF080510160174860
:1002E0000068006880F3088861B662B670471EF047
:1002F000040F0CBFEFF30880EFF3098020E9F00F43
:1003000040F804ED40F804ED1EF0040F0CBF80F33C
:10031000088880F3098800B505F076FA5DF804EBEB
:100320004EF0040E70470000501E002028190020D7
:100330002C19002004ED00E020ED00E008ED00E0C5
:100340000648804706480047FEE7FEE7FEE7FEE76F
:10035000FEE7FEE7FEE7FEE7FEE7FEE7112D0008F9
:10036000F90100082DE9F05F0546002092469B4602
:1003700088460646814640241BE0284641464746BB
:10038000224600F082F853465A46C01A914110D3D3
:1003900011461846224600F069F82D1A67EB01084D
:1003A0004F4622460120002100F060F817EB0009BB
:1003B0004E41201EA4F10104DFDC484631462A46A6
:1003C0004346BDE8F09F40EA01039B0703D009E0E4
:1003D00008C9121F08C0042AFAD203E011F8013B31
:1003E00000F8013B521EF9D27047D2B201E000F88A
:1003F000012B491EFBD270470022F6E710B51346C9
:100400000A4604461946FFF7F0FF204610BD10B516
:10041000044604E00B7800F8013B03B1491C521E6E
:10042000F8D2204610BD421C10F8011B0029FBD158
:10043000801A704730B505460020034600E05B1C7B
:10044000934205D2EC5CC85C201A01D1002CF6D195
:1004500030BD70B5064607F095FB046805460A22D4
:100460000021304600F021F82C6070BD202A04DB0A
:10047000203A00FA02F1002070479140C2F12003B7
:1004800020FA03F3194390407047202A04DB203AF6
:1004900021FA02F00021704721FA02F3D040C2F1A4
:1004A000200291400843194670472DE9F0479146D4
:1004B0000F4680460446002614F8015B2DB100F07B
:1004C0003FF80068405DC007F6D12B2D02D02D2DDE
:1004D00018D0641E4A463946204600F035F827B148
:1004E0003968A14201D1C7F8008071054FF00204BC
:1004F0000BD54042002803DD07F044FB0460A00751
:10050000BDE8F08746F48066E4E70028F8DA07F0F3
:1005100039FB04606FF00040F2E70000064C074D25
:1005200006E0E06840F0010394E8070098471034C3
:10053000AC42F6D3FFF764FE14850008348500084A
:10054000004870472C7C00082DE9F05F8246007857
:10055000002715468B460AF10104B946302801D020
:100560009DB113E014F8010B0127782803D0582817
:1005700001D045B10AE00DB1102D07D1002710259B
:1005800014F8010B02E0082500E00A250026B04619
:100590000EE005FB080005FB06F1012701EB104604
:1005A0001FFA80F8B6F5803F00D3B94614F8010B66
:1005B000294600F018F80028EBDABBF1000F05D04F
:1005C0000FB1641E00E05446CBF80040B9F1000FB3
:1005D00006D007F0D7FA02210160C81EBDE8F09FDF
:1005E00048EA0640FAE73A2800D2303820F02002E4
:1005F000412A01D3A2F13700884201D34FF0FF30E6
:10060000704700000000000080B582B0FFF7FEFDDB
:1006100005F046F805F080FF06F062F906F01CF9D7
:100620000220009048F2C01044F2A931C0F6000048
:10063000C0F6000100224FF400734FF0140CCDF807
:1006400004C006F05DF906F047FB06F055F906F028
:1006500043FA06F031F9002002B080BD000000002E
:100660000146806B026C12F0500F026C05D0D2066E
:100670000DD4806BC26C0846104742F400710164CF
:1006800001688A6812F0405F03D000F055BA00F0AC
:100690005BBA8269002AF8D1CA6A12F4700F02D0DC
:1006A0008A685205F1D44A6822F020024A60016C3F
:1006B00021F480710164016CC904E6D4016C41F03D
:1006C0000101016400F038BA806B40210164416C83
:1006D00041F00401416400F037BA0000000000005E
:1006E000806B00F02DBA0000FEE700000000000063
:1006F000F0B581B046F20444C4F2020405F0C4FA35
:1007000040F2FC6004F15401C2F20000224600688D
:10071000884207D9126892061BD401B0BDE8F040A8
:1007200005F0C6BA46F25803C4F2020303F16002B0
:10073000904205D903F56A7212689206EDD508E079
:10074000A3F15802984288BFA3F15402126892069E
:10075000E3D5884202D92021A16012E046F2580177
:10076000C4F2020101F16002904202D920216160CD
:1007700007E02022884202D941F84C2C01E041F8E0
:10078000502C40F2900C0168C2F2000C21F01001D4
:100790000160BCF80210282940D19CF80020642A8E
:1007A0003ED240F2502340F28021C2F20003C2F256
:1007B0000001D3E900760D682F440F604F689D68F3
:1007C00037444F608F68DE682F448F60CF681D69A3
:1007D0003744CF600F695E692F440F614F699D698F
:1007E00037444F618F69DE692F44CD698F61AF193E
:1007F000CF610D6AD3E908762F444D6A0F62AF19B5
:10080000D3E90A634F628F6A3744CE6A8F623344FA
:10081000CB62511C8CF80010002257E04A1C55E0B6
:1008200040F2802348F21F5EC2F20003C5F2EB1EC5
:100830001E1D196870CEA1FB0E1240F22021C2F2DB
:100840000001A4FB0E4752090A6000227C094C609B
:10085000A5FB0E451A605A606C09A6FB0E568C600B
:100860001C697509CD60A4FB0E455C699A606D0931
:100870000D61A4FB0E459C69DA60A4FB0E46DC69A1
:100880006D094D6175098D61A4FB0E451C6A1A61E5
:100890006D09CD61A4FB0E455C6A5A61A4FB0E464E
:1008A0009C6A9A616D09DA61A4FB0E47C3E90822CC
:1008B000DC6A0D629A627609A4FB0E544E627F09CF
:1008C0008F626709CF62DA628CF80020ACF80220F0
:1008D000016841F01001016040F2B460C2F2000012
:1008E00000F066FA40F29410C2F20000006805F0D1
:1008F0005BFD01B0BDE8F04005F0DAB90000000092
:100900007047000000000000704700000000000079
:1009100081B043F63000C4F20200016841F00101E9
:100920000160016801F0010100910099016841F046
:1009300002010160016801F0020100910099016863
:1009400041F004010160016801F004010091009987
:10095000016841F008010160016801F0080100919F
:100960000099016841F010010160016801F0100177
:1009700000910099016841F020010160016801F0D7
:10098000200100910099016841F040010160016877
:1009900001F0400100910099016841F0800101607F
:1009A000016801F0800100910099016841F48071B3
:1009B0000160006800F480700090009801B07047FA
:1009C00070B581B00022009290F83C20012A03D13A
:1009D0000221084601B070BD012280F83C200A685F
:1009E0001FFA82FC0A2A4FEA4C0313FA82F416D348
:1009F000B2F1004F13D01E3C0723D0F800E003FAF9
:100A000004F5734653F80C6F26EA05051226C1F269
:100A100000061D60B2428D680DD12C060DE0072343
:100A2000D0F800E003FA04F5734653F8106F26EA95
:100A300005051D608D6805FA04F41D682C431C60D3
:100A40004968062905D801EB81010EF134044B1FDA
:100A50000CE00C2901EB810104D8A1F123030EF174
:100A6000300403E0A1F141030EF12C0442F2043101
:100A70001F25C4F201019D4026680CFA03F326EA03
:100A800005052560A1F541762568B64543EA0503CD
:100A9000236048D1B2F1004F04D10A6822F4400229
:100AA0000A6040E0112A0BD01223C1F200039A42DF
:100AB00006D0122A37D10A6842F480020A6032E076
:100AC00012230E68C1F200039A4246F400020A6043
:100AD00029D140F248014DF68362C2F20001C4F20E
:100AE0001B320968A1FB0212910C01EB8101490044
:100AF00000910099B9B1009901390091009900293C
:100B00001FBF009901390091009918BF00290AD030
:100B1000009901390091009929B10099013900919A
:100B200000990029E7D1002180F83C10084601B067
:100B300070BD0000000000007047000000000000D1
:100B40007047000000000000704700000000000037
:100B5000002842D010B50446006C00283FD0206C1D
:100B6000C00646D4206C41F20211884342F204319F
:100B7000C4F2010102302064086820F440300860AB
:100B80000A68D4F810E094E809101A430A60416832
:100B9000012321F4807141604168C0F6007341EA8D
:100BA0000E214160416821F040714160416841EA95
:100BB0000C014160816821F400618160E168826814
:100BC00011438160A16A826822F07062826099425A
:100BD000826813D122F0405119E00120704720466D
:100BE00000F066F80020606484F83C00206CC006C9
:100BF000B8D50120002184F83C1010BD114381605C
:100C0000816821F040518160E16A8268114381600E
:100C1000816821F002018160A169826842EA410194
:100C2000816094F820100029416810D041F40061DF
:100C3000416041684EF2000221F460414160616A06
:100C4000CFF6FF7202EB41314268114301E021F41B
:100C5000006141600023C16ACFF6F07321F4700196
:100C6000C162E169626903EB0151C36A1943C16260
:100C7000816821F40071816094F83010836843EA40
:100C800041218160816821F480618160816841EA4D
:100C90008221816000206064216C012262F30101E5
:100CA0002164002184F83C1010BD00000000000009
:100CB0002DE9F04186B00026059642F20007044671
:100CC000CDE90366C4F201070068B84202960196B6
:100CD00002D006B0BDE8F08143F630000DF1040803
:100CE000C4F202000325416941F480714161416908
:100CF00001F4807100910099016841F004010160E4
:100D0000016801F0040100910099016841F00101BE
:100D10000160016801F0010100910099016841F052
:100D2000020101600068414600F002000090009856
:100D300007F56840CDE90155039600F0ADFA01A929
:100D4000FF2061C107F56040414600F0A5FA07F5B4
:100D500064404146CDE90155039600F09DFA40F20A
:100D6000FC6546F21040C2F20005C4F20200C5E97B
:100D70000006C5E902664FF4806028614FF4805098
:100D800068614FF48040A8614FF48070E8614FF4CF
:100D90008030C5E90806284600F07EF908B1FFF763
:100DA000B3FDA563AC6306B0BDE8F08100000000B0
:100DB00081B00021009190F83C10012902D102205D
:100DC00001B070470168012280F83C208A68D20790
:100DD0002CD18A684DF6836342F001028A6040F2AA
:100DE0004802C4F21B33C2F200021268A2FB0323C2
:100DF0009A0C02EB42020092009ABAB1009A013AB0
:100E00000092009A002A1FBF009A013A0092009AAD
:100E100018BF002A0AD0009A013A0092009A2AB11B
:100E2000009A013A0092009A002AE7D18A68D20714
:100E300002D1002001B07047026C40F201739A4366
:100E400002F5807202644A68520504D5026C0123DF
:100E500063F30D320264026C0023D2044FF00002EF
:100E600044BF426C22F00602426442F20432C4F2F1
:100E7000010280F83C306FF0220008601068C00664
:100E80000FD0A2F54170814210D0A2F58270136894
:100E900081424FF0000008BF13F0100316D001B0DC
:100EA0007047886810F0405FC3D114E04FF60450DB
:100EB000CFF6FF70105810F0405F03D1886840F003
:100EC000804088601068002001B0704752F8FC0C28
:100ED00010F0405FADD1886840F08040886000200D
:100EE00001B0704700000000B0B582B0002301934C
:100EF000044690F83C00012802D1022002B0B0BDA7
:100F000094460A462168012084F83C008868C0079E
:100F10002CD188684DF6836540F00100886040F26E
:100F20004800C4F21B35C2F200000068A0FB0505B2
:100F3000A80C00EB400001900198B8B1019801386D
:100F40000190019800281FBF019801380190019875
:100F500018BF00280AD0019801380190019828B1E3
:100F600001980138019001980028E7D18868C007EE
:100F700002D1002002B0B0BD206C40F20175A84340
:100F800000F5807020644868400504D5206C012578
:100F900065F30D302064206C0025C0044FF0000084
:100FA00044BF606C20F0060040F2E1636064C0F66C
:100FB0000003A06B84F83C5040F26165C0F6000568
:100FC000C0E90F5340F2C96342F20805C0F60003BE
:100FD000C3646FF022030B604B68C4F2010543F059
:100FE00080634B608B6843F480738B604C31634645
:100FF00000F0FEF8D5F8FC02C006206810D0A5F17C
:101000000801884217D005F5FC718842D5F8FC121A
:101010004FF0000008BF11F0100119D002B0B0BDB0
:10102000816811F0405FA4D1816841F08041816006
:10103000002002B0B0BD286810F0405F03D12868DE
:1010400040F080402860D5F8FC02002002B0B0BD1E
:10105000D5F8000210F0405F8BD1D5F8000240F0C7
:101060008040C5F80002002002B0B0BD00000000C2
:1010700090F83510022909D1052180F83510006853
:10108000016821F001010160002070478021416565
:101090000120704700000000F0B581B0044600F068
:1010A000EBF9002C4ED00546002084F834000220D5
:1010B00084F835002168086820F00100086008689D
:1010C000C00708D000F0D8F9401B052869D821686E
:1010D0000868C007F6D148F23F02251D0868CEF225
:1010E000100200EA020620692CCD324366691A43D9
:1010F000A7692A43E3691043256A3043626A38438B
:10110000042A40EA030040EA05031ED1D4E90A5E3E
:10111000206B4EEA0302104308604869BEF1000FDD
:1011200020F0030040EA050040F0040C13D0B7F5AE
:10113000005F3ED0002F4CD1022D4DD0012D42D06A
:101140004DB949E0012001B0F0BD0B60486920F0C5
:10115000070040EA020C6FF00F004AF6AB2250FA8B
:1011600081F0CAF6AA22A0FB022340F2FF32C1F8A6
:1011700014C0914347F6B4621B09C0F600025F2811
:1011800088BF0431D05C3F22A1650023E06502FAEC
:1011900000F0886001220020636584F8352001B0EA
:1011A000F0BD032220230320636584F8352001B0BD
:1011B000F0BD032DCFD8012240230120DFE805F048
:1011C000020C0203E8E7AEF1C070B0FA80F040090B
:1011D00004E0032D04D3BED1CEF300600028BAD0C2
:1011E000012240230120636584F8352001B0F0BD61
:1011F00070B590F834C0BCF1010F4BD04FF0010C2A
:1012000080F834C0D0F858E090F835C0BCF1010F38
:101210003DD14FF0020C80F835C04FF0000CC0F803
:1012200054C0D0F800C08468056CC06DDCF8006064
:10123000402C26F48026CCF80060CCF804300B4615
:1012400004BF13460A463F21CCF8083001FA00F0EB
:10125000CCF80C20CEF80800DCF8000040F01600B6
:10126000CCF80000DCF8140040F08000CCF814004A
:101270002DB1DCF8000040F00800CCF80000DCF8EC
:10128000000040F00100CCF80000002070BD0021FB
:1012900080F83410022070BD2DE9F04F82B000F1CB
:1012A0003E420A2302F1FF7742F20042C4F20202F8
:1012B00043F6004E90424FEAB72208BF0923092A9D
:1012C000C4F2010E38BF4FEAB72300244FF00109E2
:1012D00000260027009306E002360137202E04F195
:1012E000040400F0B48009FA07F80B6813EA080F49
:1012F000F2D0D1F804C0BCF1120F00F2A18009FABB
:101300000CF313F0061F00F09B800322836802FA9F
:1013100006F5D1F80CB0AB436FEA050A0BFA06F5F7
:101320002B43836043684FEA1C154FEA470923EAC1
:101330000803BD402B4343604CF01005C368122DD9
:101340008D6803EA0A0305FA09F543EA0503C36059
:1013500015D16FF003020F2502EA570304F01C02B7
:10136000034405FA02FBD3F820C00D692CEA0B0CEC
:1013700005FA02F242EA0C021A62D1F804C00CF03B
:101380000302036802FA09F203EA0A035FEACC05E2
:101390004FF0010942EA030202609DD543F644037F
:1013A0004FF6084AC4F20203CFF6FF7A0F251A68F7
:1013B00042F480421A601A6827F0030302F4804264
:1013C00001920EEB0302019B04F00C0352F80AC0D9
:1013D0009D402CEA050C009D05FA03F343EA0C033B
:1013E00042F80A30DEF800C04B684CEA0805DA0320
:1013F00058BF2CEA08059A03CEF80050DEF804C066
:101400004CEA080558BF2CEA0805DA02CEF8045069
:10141000DEF808C04CEA080558BF2CEA080543F678
:101420000C4C9B02C4F2010CCEF80850DCF80020F2
:1014300042EA080558BF22EA0805CCF800504BE7FD
:101440000322B14602FA06F36FEA030A74E702B018
:10145000BDE8F08F0000000042690A4218BF09048D
:101460008161704700000000002A08BF0904816103
:10147000704700000000000041F62070C2F200003A
:10148000006870470000000080B543F60040C4F2D9
:101490000200016841F400710160016841F480714B
:1014A0000160032000F088F8002000F005F800F04B
:1014B00027F8002080BD000070B540F2400640F2E1
:1014C0004801C2F20006C2F200014FF47A730446EA
:1014D00032780968B3FBF2F2B1FBF2F1084600F092
:1014E000B3FE0F2C4FF0010508D838B94FF0FF308C
:1014F00000222146002500F02FF87460284670BDB8
:1015000082B043F64000C4F20200016841F080510D
:101510000160016801F0805101910199416841F435
:1015200080414160406800F48040009005200099AF
:1015300002B000F041B80000002848BF70474EF2EA
:10154000001300F01F014009CEF20003012202FA4D
:1015500001F143F82010704770B54EF60C5C4FF067
:10156000FF36CEF2000C00F16045DCF80030C3F32A
:10157000022E8EF00703042B28BF0423BEF10304C0
:1015800006FA03F321EA030100F00F0338BF002439
:10159000043BB0F1FF3F634406FA04F003F10C038F
:1015A00001FA04F1C8BF05F5644322EA00000843CC
:1015B0000001187070BD00004EF60C514FF6FF038D
:1015C000CEF200010A681A4060F30A2242F08060FD
:1015D00040F0FD7008607047B0B582B043F640003F
:1015E00047F20005C4F20200C4F20005016841F0B0
:1015F00080510160006800F08050019001982868D7
:1016000040F480302860FFF737FF04466868C00365
:1016100006D4FFF731FF001BB0F57A7FF6D910E052
:10162000286840F400302860FFF726FF044600BF1A
:101630006868800308D4FFF71FFF001BB0F57A7FAE
:10164000F6D9032002B0B0BD002002B0B0BD00004A
:101650002DE9F04782B0D0F800A043F6900604468A
:101660005FEACA70C4F202061AD14FF000095FEABD
:101670000A3028D556F8040CE16B20F44010B1F57F
:10168000801F40EA010046F8040CB1FA81F04FEAED
:10169000501808BF4FF001095FEACA2018D429E0AA
:1016A00056F8880C20F4000046F8880C606B56F859
:1016B000881C014346F8881CB0FA80F04FEA5019A4
:1016C0005FEA0A30D6D44FF000085FEACA2011D58D
:1016D00056F8040C216C20F44000B1F5800F40EA6C
:1016E000010008BF4FF00109002908BF4FF00108B1
:1016F00046F8040C5FEA8A6057465BD556F8500CF2
:1017000047F2000740F0805046F8500CC4F2000742
:1017100056F8500C00F0805001900198386840F461
:1017200080703860FFF7A8FE054600BF3868C00526
:1017300005D4FFF7A1FE401B6428F7D950E256F804
:10174000200C10F440701BD0216B01F440718842D2
:1017500016D056F8200C56F8201C41F4803146F87B
:10176000201C56F8201C20F4407021F4803146F8EB
:10177000201C46F8200C56F8200CC00740F034829C
:101780004FF6FF432768206B56F8882CC0F6FF738E
:1017900000F4407122F4F8120340B1F5407F08BF15
:1017A0001A436FF31F3046F8882C56F8201C084364
:1017B00046F8200CF80637D4780443D4380449D4CA
:1017C000F8034FD4B80355D478065BD4380661D4F7
:1017D000F80567D4B8056DD4780573D438057AD484
:1017E000F80400F18180B80400F18780780200F1EC
:1017F0008D80B80200F19380780300F19F80380259
:1018000000F1A580780100F1AC80380100F1B380CF
:10181000F8000AF0807000F1BC80002808BFB9F120
:10182000000F40F0E180C2E056F8040C20F0807018
:1018300046F8040CA06B56F8041C084346F8040C48
:101840007804BBD53068616E20F4403008433060C6
:101850003804B5D53068A16E20F4402008433060CC
:10186000F803AFD53068E16E20F4401008433060D3
:10187000B803A9D53068216F20F4400008433060D8
:101880007806A3D53068616C20F00300084330600F
:1018900038069DD53068A16C20F00C0008433060FC
:1018A000F80597D53068E16C20F0300008433060CF
:1018B000B80591D53068216D20F0C0000843306034
:1018C00078058BD53068616D20F440700843306036
:1018D00038057FF585AF3068A16D20F4406008437E
:1018E0003060F8047FF57FAF3068E16D20F4405040
:1018F00008433060B8047FF579AF3068216E20F47A
:1019000040400843306078027FF573AF3068A16FC4
:1019100020F0806008433060B8027FF56DAF30681A
:10192000E16F20F00060B1F1006F40EA010008BFF4
:101930004FF00108306078037FF561AF3068616F68
:1019400020F040700843306038027FF55BAF3068AC
:10195000D4F8801020F080500843306078017FF583
:1019600054AF3068D4F8841020F000500843306041
:1019700038017FF54DAF56F8040CD4F8881020F0EC
:101980000070084346F8040CF8000AF080707FF5F8
:1019900044AF56F8041CD4F88C2021F08061114328
:1019A00046F8041C002808BFB9F1000F1CD1B7F19C
:1019B000007F19D017F0080008BFB8F1000F00F041
:1019C000A28056F8900C20F0805046F8900CFFF75B
:1019D00053FD054656F8900C800028D5FFF74CFDC6
:1019E000401B6428F6D9FBE056F8900C20F080608C
:1019F00046F8900CFFF740FD054600BF56F8900CE6
:101A0000000105D5FFF738FD401B6428F6D9E7E053
:101A10002068C10702D0616B002978D0010340F132
:101A20008A80E16BB1F5801F40F0858089E02068F5
:101A3000010301D5E16B19B1C1021ED5216CE1B9D9
:101A400056F8081C56F8082C01F4403102F0E04228
:101A500063691144A26941EA8311A76A41EA0261FC
:101A600046F8081C56F8041C6FF0FF0221F4F851E8
:101A700002EB0722114346F8041C810214D5E16FE2
:101A8000B1F1006F10D156F8081C56F8082C01F07F
:101A9000706102F0E0426369276A114441EA8311F0
:101AA00041EA074146F8081C000718D556F8080C0B
:101AB00056F8081C00F0706001F440316269084477
:101AC000E16940EA8210E36A40EA017046F8080CD6
:101AD00056F8040C20F44030184346F8040C56F82D
:101AE000900C40F0805046F8900CFFF7C5FC04467F
:101AF00056F8900C800006D4FFF7BEFC001B65284A
:101B0000F6D3032082E0002002B0BDE8F08756F84B
:101B10000C1C56F80C2C01F4403102F07062D4E930
:101B20000135114441EA831141EA057146F80C1C64
:101B300001033FF576AFC1021DD5216CB1F5800FD1
:101B400019D156F80C1C56F80C2C01F4403102F057
:101B5000E04263681144E26841EA8311656A41EA40
:101B6000026146F80C1C56F8041C6A1E21F01F0185
:101B7000114346F8041CC10110D556F80C1C56F848
:101B80000C2C01F0706102F0E04263682569114499
:101B900041EA831141EA054146F80C1C80010CD54D
:101BA0006068A368D4E90321090441EA801040EA8F
:101BB000026040EA037046F80C0C56F8900C40F0B6
:101BC000806046F8900CFFF757FC054656F8900CDD
:101BD00000013FF5EFAEFFF74FFC401B6428F5D93D
:101BE000032002B0BDE8F087FFF746FC054641F24E
:101BF000883700BF56F8200C80073FF5C1ADFFF7CE
:101C00003BFC401BB8424FF00300F3D902B0BDE8E3
:101C1000F0870000000000002DE9F041002800F0EE
:101C2000CB8043F608080446C4F202080D46D8F8F3
:101C3000F80300F00F0088420DD2D8F8F80320F026
:101C40000F002843C8F8F803D8F8F80300F00F0095
:101C5000A84240F0B1802068810717D5410705D51B
:101C6000D8F8001041F4E051C8F80010010705D57C
:101C7000D8F8001041F46041C8F80010D8F80010FE
:101C8000A26821F0F0011143C8F80010C00725D167
:101C9000D8F8F80300F00F00A8420DD9D8F8F803DF
:101CA00020F00F002843C8F8F803D8F8F80300F034
:101CB0000F00A84240F080802068410721D400072F
:101CC00029D4D8F8000000F00C00082832D00428ED
:101CD00053D147F64000C0F27D1052E06068012801
:101CE00006D158F8081C890369D40120BDE8F081A9
:101CF000022858F8081C5DD1890160D40120BDE894
:101D0000F081D8F80010E26821F4E0511143C8F8DE
:101D100000100007D5D5D8F80000216920F46040F4
:101D200040EAC100C8F80000D8F8000000F00C003C
:101D30000828CCD158F8042C58F8040C400247F677
:101D4000400058F8041CC0F27D105CBF42F2004015
:101D5000C0F2F400C1F3881102F03F02A0FB0101C0
:101D60000023FEF7FFFA58F8041C0222C1F30141D8
:101D700002EB4101B0FBF1F003E042F20040C0F29F
:101D8000F400D8F8001047F63042C0F60002C1F364
:101D90000311515C40F24402C2F20002C84040F21A
:101DA0004801C2F2000108601068FFF785FB0020BF
:101DB000BDE8F081890702D40120BDE8F081D8F8A0
:101DC000001021F003010843C8F80000FFF754FB9E
:101DD000064641F2883700BFD8F80000616800F07D
:101DE0000C00B0EB810F3FF453AFFFF745FB801BB6
:101DF000B842F1D90320BDE8F081000000000000E6
:101E000040F2480043F60801C2F20000C4F20201A9
:101E100047F6404200680968C0F60002C1F382211B
:101E2000515CC8407047000040F2480043F608018A
:101E3000C2F20000C4F2020147F64042006809689D
:101E4000C0F60002C1F34231515CC8407047000047
:101E500010B543F60404C4F20204606800F00C00FC
:101E6000082806D0042823D147F64000C0F27D1090
:101E700010BD22682068400247F640002168C0F289
:101E80007D105CBF42F20040C0F2F400C1F3881143
:101E900002F03F02A0FB01010023FEF763FA216874
:101EA0000222C1F3014102EB4101B0FBF1F010BD90
:101EB00042F20040C0F2F40010BD0000000000003B
:101EC0002DE9F04182B000286ED00446007843F638
:101ED0000006C007C4F202060BD0B06800F00C0088
:101EE000042840F087803068800302D560680028AD
:101EF0005AD0207880071AD5B06810F00C0F09D09E
:101F0000B06800F00C00082840F090807068400233
:101F100000F18C803068800702D5E068012843D149
:101F20003068216920F0F80040EAC1003060207874
:101F300000073DD4207840074DD4A56985B3B0682B
:101F400000F00C00082840F0BD80012D70682BD0F7
:101F500000F48001E269914226D100F03F01226A3B
:101F6000914221D147F6C071626A0140B1EB821FF4
:101F70001AD1A16A4FF6FF72C903914300F44032AF
:101F8000A1F580318A420FD1E16A00F07062B2EBB4
:101F9000016F09D1216B00F0E040B0EB017F03D16C
:101FA000002002B0BDE8F081012002B0BDE8F08160
:101FB00060690028706F75D040F001007067FFF70E
:101FC0005BFA0546706F8007B4D4FFF755FA401BE3
:101FD0000228F7D90BE1306CC0003BD4306C4FF0D5
:101FE000010840F080503064306C00F08050019067
:101FF000019831E0B06800F00C00082803D1706847
:1020000040023FF570AF6068002800F0A880B0F58E
:10201000803F07D0B0F5A02F306840F0D58040F465
:1020200080203060306840F48030D3E0E0680028E1
:10203000306869D040F001003060FFF71DFA0546B6
:10204000306880073FF56CAFFFF716FA401B022897
:10205000F6D9CCE04FF0000847F20007C4F20007C1
:102060003868C0050FD4386840F480703860FFF7D6
:1020700003FA05463868C00505D4FFF7FDF9401B93
:102080006428F7D9B3E0A06800284FD0012805D014
:102090000528306F7AD140F004003067306F40F08F
:1020A000010079E020F001007067FFF7E5F90546CF
:1020B000706F80077FF53EAFFFF7DEF9401B022807
:1020C000F6D994E0306820F080703060FFF7D4F9E2
:1020D000022D05460CD100BF3068800140F18B8095
:1020E000FFF7CAF9401B02284FF00300F4D958E764
:1020F000306880017FF554AFFFF7BEF9401B02281E
:102100004FF00300F4D94CE720F001003060FFF7F6
:10211000B3F90546306880077FF509AFFFF7ACF9E2
:10212000401B02284FF00300F4D93AE7306F20F04B
:1021300001003067306F20F004003067FFF79CF932
:10214000054641F2883700BF306F800733D5FFF76F
:1021500093F9401BB8424FF00300F5D921E73068EE
:1021600020F480303060306820F480203060FFF749
:1021700083F90546306880037FF5BBAEFFF77CF935
:10218000401B64284FF00300F4D90AE720F0010057
:102190003067306F20F004003067FFF76DF90546B7
:1021A00041F28837306F800705D4FFF765F9401B8F
:1021B000B842F7D91BE0B8F1000F3FF4BEAE306C67
:1021C00020F080503064B8E620F480303060306811
:1021D00020F480203060FFF74FF905463068800317
:1021E0003FF587AEFFF748F9401B6428F6D9032076
:1021F00002B0BDE8F08104F11C07256B8FCF0843C6
:10220000D9034FF6FF7340EA8210994340EA076012
:10221000A1F58031084340EA05707060306840F0F5
:1022200080703060FFF728F9044600BF30688001F5
:102230003FF5B6AEFFF720F9001B02284FF0030070
:10224000F4D9AEE600000000411E0020B0EB116F93
:1022500001D0012070474EF21002F023CEF20002AE
:1022600051604EF62351CEF200010B7007219060B1
:10227000116070470000000070470000000000007F
:1022800070470000000000007047000000000000E0
:10229000704700000000000010B5044600680169A6
:1022A000890744BFC1685FEA81713FD4016949076A
:1022B00044BFC1685FEA417144D40169090744BF62
:1022C000C1685FEA01714AD40169C90644BFC168A7
:1022D0005FEAC1614FD40169C9071CBFC1685FEAE9
:1022E000C17155D10169090644BFC1685FEA016146
:1022F00056D40169C90544BFC1685FEA016157D47A
:102300000169490644BFC1685FEA416158D4016967
:10231000890646BFC1685FEA816110BD6FF0200188
:1023200001612046BDE81040FFF7AEBF6FF002012B
:102330000161012121778069800749D02046FFF79C
:10234000A7FF4BE06FF00401016102212177806952
:1023500010F4407F46D02046FFF79AFF48E06FF028
:102360000801016104212177C069800744D020461B
:10237000FFF78EFF46E06FF0100101610821217721
:10238000C06910F4407F41D02046FFF781FF43E051
:102390006FF001010161204600F04AF82068A1E7D2
:1023A0006FF0800101612046FFF76AFF2068A0E717
:1023B0006FF4807101612046FFF75EFF20689FE7A0
:1023C0006FF040010161204600F036F820689EE77A
:1023D000204600F025F8204600F026F8002020775F
:1023E000206863E7204600F01BF8204600F01CF848
:1023F00000202077206860E7204600F011F8204692
:1024000000F012F80020207720685DE7204600F0F9
:1024100007F8204600F008F80020207720685AE7E7
:10242000704700000000000070470000000000003E
:10243000704700000000000070470000000000002E
:10244000704700000000000070470000000000001E
:1024500070B50646006840F62F02C16901EA020322
:102460000268202B856802F0200308D13BB1316E51
:10247000002900F0AA803046BDE87040084740F6C9
:102480000F04214209D005F0010C12F4907F8CF06A
:10249000010E23D1BEF1000F20D0CB020AD515F4D6
:1024A000800307D04FF4801101623046BDE87040D0
:1024B000FFF7C6BF11400A0600F18380490658BFE6
:1024C00070BD016821F0400101602020706700208C
:1024D00070663046BDE8704000F056B9CC0718BFB2
:1024E00012F4807405D001240462F46F44F00104F6
:1024F000F46701F00204012585EA540454EA0E044D
:1025000005D102240462F46F44F00404F46701F07E
:10251000040485EA940454EA0E0505D104250562F5
:10252000F56F45F00205F56753EA0C0318BF012368
:102530000D0706D52BB108230362F36F43F00803A0
:10254000F3670B0509D512F0806306D04FF40063E2
:102550000362F36F43F02003F367F36FABB31140F3
:10256000890604D5316E11B1304688473068F16F65
:10257000826802F0400201F0280189182BD001681E
:1025800021F490710160816821F0010181602021B6
:10259000B167002131668168490617D5816821F04D
:1025A00040018160F06E88B142F61971C0F60001F9
:1025B0000165FEF75DFD40B1F06E016DBDE8704054
:1025C0000847716E00297FF456AF70BD3046BDE8F4
:1025D0007040FFF739BF3046FFF736FF0020F06745
:1025E00070BD00000000000010B5A0B10446406FAF
:1025F00028B9002084F87000204600F025F8242037
:1026000060672068016821F001010160204600F048
:10261000E3FC012801D1012010BD606A10B1204601
:1026200000F08EFB2068416821F490414160816890
:1026300021F02A018160016841F00101016020461A
:10264000BDE8104000F0ECBBB0B586B000240068D7
:10265000C4F20204A4F57041884201D006B0B0BDB6
:1026600043F6300001ADC4F20200016841F00101FF
:102670000160016801F0010101910199416941F096
:10268000100141614069012100F0100001900198A2
:102690004FF40070019002200290CDE90310072052
:1026A000059020462946FEF7F7FD4FF48060019023
:1026B00020462946FEF7F0FD2520FEF73DFF2520A8
:1026C00001210022FEF748FF06B0B0BD0000000067
:1026D000836F202B0AD10123002918BF002A01D1C2
:1026E0001846704790F87030012B01D102207047D6
:1026F000012380F870304165A0F85820A0F85A20D6
:1027000000228168026651B1B1F1805F0BD0B1F552
:10271000805F0CD1026922B940F2FF120AE002691F
:102720003AB9FF2206E002691AB13F2202E0002214
:1027300000E07F22A0F85C200022C267222282678C
:10274000B1F5805F0268936843F00101916001D1A7
:10275000016969B142F68171C0F60001016600238A
:1027600080F87030106840F4907010601846704720
:1027700042F62971C0F60001F0E7000000000000F9
:1027800070470000000000007047000000000000DB
:10279000B0B584B040F2B4600121C2F20000C0F6CE
:1027A000007100240125816242F20001CDE902445A
:1027B000CDE9004480F82040C4F20101C46280F8F1
:1027C000305001604FF44031C0E90114C0E90345C5
:1027D000C0E905440C21C161FEF7BAF908B1FEF762
:1027E00093F840F2B4606946C2F20000CDE90045BA
:1027F0000295FEF7E5F808B1FEF786F80120009093
:1028000040F2B4606946C2F2000002240194FEF76F
:10281000D7F808B1FEF778F840F2B4606946C2F222
:102820000000009403240194FEF7CAF808B1FEF7F3
:102830006BF840F2B4606946C2F2000000940424D0
:102840000194FEF7BDF808B1FEF75EF840F2B460FF
:102850006946C2F20000009405240194FEF7B0F826
:1028600008B1FEF751F840F2B4606946C2F20000C8
:10287000009406240194FEF7A3F808B1FEF744F88B
:1028800040F2B4606946C2F200000094072401944B
:10289000FEF796F808B1FEF737F840F2B4606946E3
:1028A000C2F20000009408240194FEF789F808B1F0
:1028B000FEF72AF840F2B4606946C2F200000094C4
:1028C00009240194FEF77CF808B1FEF71DF840F2E8
:1028D000B4606946C2F2000000940A240194FEF735
:1028E0006FF808B1FEF710F840F2B4606946C2F222
:1028F000000000940B240194FEF762F808B1FEF783
:1029000003F80C20019040F2B4606946C2F2000066
:102910000094FEF755F808B1FDF7F6FF04B0B0BD1E
:1029200080B582B043F630000222C4F20200016892
:1029300041F4800101600068012100F480000190F1
:1029400001983820FEF708FE382002B0BDE880402C
:10295000FEF7F2BD0000000081B043F63000C4F283
:102960000200016841F480710160016801F4807126
:1029700000910099016841F080010160016801F057
:10298000800100910099016841F004010160016833
:1029900001F0040100910099016841F0010101601A
:1029A000016801F0010100910099016841F0020104
:1029B0000160016801F0020100910099016841F095
:1029C00008010160006800F008000090009801B064
:1029D000704700000000000010B540F29C7041F20A
:1029E0000001C2F20000C4F201010C2201604FF4A8
:1029F000E13141600021C0E902110161C0E9052116
:102A0000C0E907114162FFF7EFFD08B1FDF77CFF58
:102A100040F29C7440F21C21C2F20004C2F2000198
:102A200001222046FFF754FE40F29C108022C2F2A1
:102A300000002146FDF7C7FC10BD000000000000AB
:102A400084B000200390CDE9010049A003F044F9CF
:102A500040F2901440F20409C2F20004C2F20009EC
:102A60000DF1040B03E000BF322004F0ADF8606804
:102A70004FF0FF3103F0C0FC08B104F0A9F940F2B7
:102A800000404FF40051C4F20200FEF7E5FC47F6A7
:102A90002C7647F6CC674FF0000AC0F60006C0F669
:102AA000000713E00021384600F012FF01213046F4
:102AB00000F00EFF002020800BF80A000AF1010A46
:102AC0000837BAF10C0F06F1080641D060880121E1
:102AD00001FA0AF50542F1D009EB8A0019F80A104B
:102AE000C268501A14D41144B1F5805F10DA01287D
:102AF0000EDB40F6FE7291420ADC40F25022C2F236
:102B0000000252F82A20904219DC914217DB00BFE4
:102B10001BF80A00002101300BF80A005FFA80F868
:102B2000384600F0D5FE0021304600F0D1FEB8F165
:102B3000640FC3D32088284320800020BCE7904244
:102B4000B0DD0121384600F0C3FE0021AFE700BF31
:102B5000218860886FF31F3181427FF485AF0028A0
:102B60003FF482AF0AA003F0B7F8002020807BE793
:102B70004D7573636C6520636F6E74726F6C207437
:102B800068726561642073746172740A00000000E9
:102B90004D4F4B0A0000000070470000000000008D
:102BA000704700000000000080B503F06DF804F0ED
:102BB0006BF9BDE8804003F07BB800000000000026
:102BC00010B5B8B02BAC2C2104F10800FDF714FCB3
:102BD00000202A90CDE92800CDE9260002A8902106
:102BE000FDF70AFC43F64000C4F20200016841F020
:102BF00080510160006800F08050019047F20000B1
:102C00000199C4F20000016841F44041016000688C
:102C10004FF4800100F440400190019801202B9076
:102C20004FF480302C900220319032911921339151
:102C30004FF4D871CDE9341036902046FFF740F9B3
:102C400008B1FDF761FEFEF7C7FC08B1FDF75CFEB9
:102C50000F202690022027904FF4A05029904FF487
:102C600080502A9026A8072100242894FEF7D4FF3C
:102C700008B1FDF749FEC020029002A8CDE9134437
:102C8000FEF7E6FC08B1FDF73FFE38B010BD0000CE
:102C900043F60400C4F20200416801F00C0242F263
:102CA0000041082AC0F2F40106D0042A1ED147F6DA
:102CB0004001C0F27D1119E00268D0F800C0520254
:102CC00047F640020368C0F27D1258BF0A46C3F3BC
:102CD000881103680CF03F0CB2FBFCF2C3F3014314
:102CE0005143022202EB4302B1FBF2F140F24802EF
:102CF00047F63043C2F20002C0F60003116040689C
:102D0000C0F30310185C21FA00F010607047000057
:102D10004EF68850CEF20000016841F47001016067
:102D20004FF0006140F8801C704700000000000078
:102D300040F25C70C2F20000FFF7AEBA0000000083
:102D4000416ACA070CD18A0715D44A071ED40A075C
:102D500027D4CA0630D48A0639D44A0655D541E06C
:102D60000268D0F828C0536823F4003343EA0C0308
:102D700053608A07E9D50268D0F82CC0536823F461
:102D8000803343EA0C0353604A07E0D50268D0F869
:102D900030C0536823F4802343EA0C0353600A07CE
:102DA000D7D50268D0F834C0536823F4004343EA0F
:102DB0000C035360CA06CED50268D0F838C09368B9
:102DC00023F4805343EA0C0393608A06C5D5026856
:102DD000D0F83CC0936823F4005343EA0C0393609B
:102DE0004A0612D50268D0F840C05368BCF5801F6F
:102DF00023F4801343EA0C03536006D1536823F491
:102E0000C00C436C43EA0C035360090658BF70477B
:102E10000168806C4A6822F40022104348607047C1
:102E200070B504460020264646F87C0FFEF724FBCA
:102E3000216805460A6812070ED4086840072CD49A
:102E40002020606704F178060020202131600021F5
:102E500084F8701070BD00BFC8698002EDD4FEF721
:102E60000BFB2168401BB0F1007F08682AD24007A5
:102E700044BFC8695FEA0050EED54FF400600862B5
:102E8000086820F4D0700860886820F0010088602D
:102E900020206067A0670320D7E7C8694002CFD42D
:102EA000FEF7EAFA411B2068B1F1007F016816D2F3
:102EB000490744BFC1695FEA01511DD4C06940029E
:102EC000EED5BDE720F4D0700860886804F178067C
:102ED00020F001008860202060670320B5E721F41E
:102EE000D0710160816804F1780621F001018160F0
:102EF000202060670320A8E74FF4006101620168A9
:102F000021F4D0710160816821F0010181602020ED
:102F10006067A067032098E7806B0021A0F85A1033
:102F2000A0F85210FFF790BAB0F85C200168836FE8
:102F3000222B1FD1D1F824C0436D02EA0C0223F8E2
:102F4000022B4365B0F85A20013AA0F85A20B0F895
:102F50005A20002A18BF70470A6822F490720A604B
:102F60008A6822F001028A602021816700210166BF
:102F7000FFF706BC886940F00800886170470000D0
:102F8000B0F85C100268836F222B1FD1526A436D28
:102F900011401970416D01314165B0F85A10013985
:102FA000A0F85A10B0F85A10002918BF70470168ED
:102FB0000A6822F490720A608A6822F001028A602C
:102FC0002021816700210166FFF7DABB906940F09C
:102FD0000800906170470000B0B505460168806840
:102FE00046F6F314D5E9032318436B690343D5F878
:102FF0001CC00868CEF6FF7443EA0C032040184357
:103000000860486847F2FF7320F44050C4F20003A0
:1030100010434860A86999422A6A40EA02008A6817
:1030200022F4306240EA02004FF01002886018DC9F
:1030300044F6FF30C4F2000081422BDC44F2004031
:10304000C4F2000081424AD044F60000C4F20000FD
:1030500081426BD143F69000C4F20200006801097E
:1030600051E040F6FF70C4F20100814225DC47F6D2
:103070000000C4F20000814238D047F60040C4F29C
:103080000000814252D143F69000C4F20200006871
:10309000810B38E044F60040C4F2000081422CD09D
:1030A00045F20000C4F2000081423FD143F6900097
:1030B000C4F202000068010A25E041F20040C4F2B7
:1030C0000100814224D041F20000C4F2010081429B
:1030D0002CD143F69000C4F2020001681EE043F6D2
:1030E0009000C4F20200006881080CE043F69000F2
:1030F000C4F202000068010B05E043F69000C4F240
:1031000002000068810947F6A462C0F6000209E0E7
:1031100043F69000C4F202000068810A47F6946208
:10312000C0F6000201F0030052F82020BCF5004F69
:1031300012D1082A4FF001003AD844F60001C0F23B
:10314000E811DFE802F0051C26352035353524006E
:10315000FEF756FE41001CE0082A4FF0010027D878
:1031600042F20041C0F2F401DFE802F0052630220D
:103170002A2222222E00FEF743FE014626E0FEF719
:1031800053FE410005E0FEF763FE410001E04FF40D
:103190008031686801EB5001B1FBF0F14FF6F0703F
:1031A000084022D0C1F342012A680843D0600020C1
:1031B0000021C5E91811B0BDFEF736FE014605E055
:1031C000FEF746FE014601E04FF40041686801EB5E
:1031D0005001B1FBF0F080B2102806D32968C86016
:1031E00000200021C5E91811B0BD01200021C5E96A
:1031F0001811B0BD000000002DE9F04102F044FDBF
:1032000040F29C1CC2F2000CDCF80020D069800661
:1032100044BF10685FEA806003D4BDE8F04102F06B
:1032200047BDD06940F294088006C2F2000807D476
:1032300008F10C0003F0B8F8BDE8F04102F038BD29
:10324000B8F8083041F2240ED8F80400C4F2010E98
:1032500003E000BFD1698906EAD5DEF8004080EAC4
:103260001045C0F34E070221B7EB504F08BF05F0E1
:1032700001011EB2450C39B10129EBD0EF1B98BFFB
:103280003744B742E6D002E00027B742E2D0D8F890
:1032900000004455B8F90810D8F8042002F50030B1
:1032A0004B1EB3EB524F6FF35F4208BF82F4803086
:1032B0008BB2DCF80020C8F80400CBE70000000067
:1032C00040F61C00C2F20000FFF7C2B80000000088
:1032D000FEE70000000000004EF60C500422CEF283
:1032E0000000C0F2FA52BFF34F8F016801F4E061B1
:1032F00011430160BFF34F8F00BFFDE700000000E6
:1033000018B1C1B219B101200FE00020704710F4CC
:103310007F4102D0090A092007E010F47F0102D0A2
:10332000090C112001E0010E192047F68952C0F660
:103330000002515C0844704710B547F6BC64012197
:10334000C0F60004204600F0CBFA0021204600F031
:10335000BFFA47F6C4640121C0F60004204600F01D
:10336000BFFA00212046BDE8104000F0B1BA0000CD
:1033700080B500F045FC002080BD0000000000008A
:1033800080B500F099FD002080BD00000000000025
:1033900010B582B042F641210520009014A0C0F67D
:1033A0000001002240F2DC531424019403F0A8FA37
:1033B00040F29014C2F20004A060B0B147F6CC60B5
:1033C0000C21C0F6000000F08BFA47F62C700C219F
:1033D000C0F6000000F084FA606809A10022002312
:1033E00002B0BDE8104002F0CFBF02B010BD00BF78
:1033F0004D7573636C655F436F6E74726F6C000024
:103400006164635F72656164790000000000000020
:1034100070B582B040F2781648F26440C2F20006FD
:1034200048F21451C0F60000C0F60001C6E90001E0
:103430000120782102F034F8706120B343F2C141D9
:103440000620009014A0C0F6000100224FF4007383
:103450000A250195002403F053FA0546706910A16E
:103460000022002302F090FF706990F8211041F0D3
:10347000020180F821101DB1284603F02DFC002424
:10348000204602B070BD08A002F026FC4FF0FF34C9
:10349000204602B070BD00BF747368656C6C00009C
:1034A00073687278000000006E6F206D656D6F723A
:1034B0007920666F72207368656C6C0A00000000EA
:1034C00040F2781A48F23A45C2F2000A40F2B027B8
:1034D0004FF0010B4FF00009DAF81400C0F60005B8
:1034E000C2F20007022690F8211041F0010180F895
:1034F000211001E080F8206002F006F980461B28C8
:10350000DAF814003ED090F8201002293DD00129AD
:1035100004D1B8F15B0FEDD080F82090B8F10D0F19
:1035200000F2AD80DFE818F00E00F100F100F100CC
:10353000F100F100F100F100B20084000F00F10091
:10354000F1000F00D8E701F05BF9012812D1DAF899
:10355000140090F82110C90707D048F2DE30C0F6F9
:10356000000002F0B9FBDAF81400B0F87210223053
:1035700000F0EEFFDAF8140054212230FCF73CFF93
:10358000BAE700BF80F820B0B6E7A8F1410180F8A3
:1035900020900229B0D3B8F1440F00F27080DFE828
:1035A00018F04600B400B400B400B400B400B40095
:1035B000B400750047004500B400B4004500B400F5
:1035C000B400B400B400B400B400B400B400B4005B
:1035D000B400B400B400B400B400B400B400B4004B
:1035E000B400B400B400B400B400B400B400B4003B
:1035F000B400B400B400B400B400B400B400B4002B
:10360000B400B400B400B400B400B400B400B4001A
:10361000B400B400B400B400B400B400B400B4000A
:10362000B400B400B400B40027013F018BE763E7A6
:10363000B0F8741051B10024284602F04DFBDAF8BE
:1036400014000134B0F874108C42F5D300F1220458
:1036500048F2DE30C0F6000002F03EFB01F0D0F888
:10366000012802D1204600F0BBFEDAF8140090F8E1
:103670002100800700F1A88087F80090FAE0B8F1F7
:10368000FF0F3FF439AFB8F17F0F3ED1B0F874109F
:1036900000293FF431AFB0F8722001398BB2A0F8A5
:1036A0007410541EA0F87240A2B29A4240F2958063
:1036B000C118D21A01F12200233102F0D9FBDAF845
:1036C0001400B0F87210084480F82290DAF8140060
:1036D000B0F87410084400F122016FA002F0FCFA67
:1036E000DAF81410B1F87400B1F8721088423FF69D
:1036F00003AF441E284602F0EFFADAF81400013452
:10370000B0F872008442F5D3F6E6B0F87220502A81
:1037100003D30022A0F8722033E0B0F874309A424C
:103720002FD9C118D21A01F12300223102F0A0FBD7
:10373000DAF81400B0F87410084480F82280DAF83F
:10374000140090F82110C90709D0B0F8741008448B
:1037500000F1220154A002F0BFFADAF81400B0F828
:103760007440B0F872108C421DD200BF284602F09F
:10377000B3FADAF814000134B0F872108C42F5D3C1
:1037800011E0104480F82280DAF8140090F821103B
:10379000C90708D048F23C404146C0F6000002F09C
:1037A0009BFADAF81400B0F87210B0F874300131F6
:1037B000A0F872108AB2591C502AA0F87410FFF4B5
:1037C0009BAEC0F8729097E6DAF81010C1B34FF4D0
:1037D00080623846FCF71BFE4CE02EA002F07CFA1B
:1037E000DAF81400B0F87210084480F8229083E6EA
:1037F000B0F87410B0F872209142BFF47DAE084466
:1038000090F8221048F23C40C0F6000002F064FA42
:10381000DAF81400B0F874100131A0F874106BE6F7
:10382000B0F8740000283FF467AE284602F054FA5E
:10383000DAF81400B0F874100139A0F874105BE6DF
:1038400000F0DEFF30B147F26D3087F80490C2F22D
:10385000680009E046F67300C0F22000C7F80300D4
:1038600046F66610C7F26E3038603846FCF7DBFD6E
:103870003E2139520AA03946224602F02DFADAF8E2
:10388000144004F12200FCF7CEFDA4F87200A4F865
:10389000740031E608200800082573202008000085
:1038A0002573257300000000257300000000000050
:1038B00080B502A002F010FA002080BD48656C6C53
:1038C0006F2052542D546872656164210A00000013
:1038D0000A46002918BF012281880068FDF7C4BD8F
:1038E00070B586B00C46012102914FF0020203929E
:1038F00004918CB1A0F1080601AD00BF56F8080F85
:10390000716801912946FDF7C7FCB1883068002233
:10391000FDF7AAFD013CF1D106B070BD000000002A
:103920002DE9F04381B015A002F0D6F940F27810ED
:1039300040F27C18C2F20000C2F200080768D8F812
:103940000050AF4216D212A40FF2480903E000BFA4
:103950000837AF420ED23E68022230462146FCF7BD
:1039600069FD0028F4D04846314602F0B5F9D8F890
:103970000050EDE7002001B0BDE8F0832D2D467525
:103980006E6374696F6E204C6973743A0A000000AC
:103990005F5F000025730A002DE9F04F8DB0052010
:1039A00002F0F2FB00F1040877A080A2082102F0E7
:1039B00093F948F2FB34C0F60004204602F08CF97B
:1039C000204602F089F9204602F086F9204602F0EE
:1039D00083F9204602F080F9204602F07DF9204666
:1039E00002F07AF9204602F077F972A002F074F939
:1039F00048F2114748F2FD340026C0F60007C0F631
:103A00000004CDF80C8005E0049EDDF80C80002E4B
:103A100000F0B5803546002E08BF4546FCF7F6FBA2
:103A200036B115F8041C01F07F01052940F0A5808E
:103A30002968414500F0A1800A68059142451DD0E2
:103A40001168069241451DD00A68079142451CD075
:103A50001168089241451BD00A68099142451AD065
:103A600011680A92414519D00A680B91424518D055
:103A7000114604920C924FF0080817E04FF001082D
:103A800012E000BF4FF002080EE04FF003080BE019
:103A90004FF0040808E04FF0050805E04FF0060875
:103AA00002E04FF0070800BF0021049105ADFCF7CC
:103AB000B1FB4FF0000909E048F2DE30C0F600002B
:103AC00002F00AF909F10109C1459DD055F829B064
:103AD000FCF79CFB1BF8041C01F07F06FCF79AFB2B
:103AE000052EEFD1DA4600205AF8083F5646BAF8BC
:103AF0000E10BAF80C2000BF3668564510D0366854
:103B000056450CD03668564529D03668043056459F
:103B1000F2D101385345ABF10C0305D124E001305B
:103B20005345ABF10C031FD0CDE900120821082248
:103B3000029027A002F0D0F8DAF800605645BBD01A
:103B4000A6F11401384602F0C7F830685045B3D0EA
:103B5000204602F0C1F836685645F1D1ACE7023094
:103B60005345ABF10C03DFD1CDE900120821082247
:103B700002901DA002F0B0F8A4E7FCF74BFB002078
:103B80000DB0BDE8F08F00BF252D2A2E7320656E85
:103B90007472792073697A652073757370656E64C9
:103BA000207468726561640A000000006D61696CD0
:103BB000626F7800202D2D2D2D20202D2D2D2D20D4
:103BC0002D2D2D2D2D2D2D2D2D2D2D2D2D2D0A0075
:103BD000252D2A2E2A7320253034642020253034C8
:103BE000642025643A000000252D2A2E2A73202502
:103BF0003034642020253034642025640A0000001D
:103C000010B540F2CC0408A0C2F20004A16802F092
:103C100063F8A16909A002F05FF8E1690CA0BDE8B2
:103C2000104002F059B800BF746F74616C206D656C
:103C30006D6F72793A2025640A000000757365641F
:103C4000206D656D6F7279203A2025640A000000AE
:103C50006D6178696D756D20616C6C6F6361746501
:103C600064206D656D6F72793A2025640A0000004A
:103C70002DE9F04F8DB0022002F086FA00F1040821
:103C800075A07CA2082102F027F848F2FB34C0F6A8
:103C90000004204602F020F8204602F01DF82046DD
:103CA00002F01AF8204602F017F8204602F014F845
:103CB000204602F011F8204602F00EF8204602F0ED
:103CC0000BF86FA002F008F848F2114748F2FD34F3
:103CD0000026C0F60007C0F60004CDF80C8005E011
:103CE000049EDDF80C80002E00F0B2803546002ED8
:103CF00008BF4546FCF78AFA36B115F8041C01F0F6
:103D00007F01022940F0A2802968414500F09E8091
:103D10000A68059142451DD01168069241451DD0A3
:103D20000A68079142451CD01168089241451BD092
:103D30000A68099142451AD011680A92414519D082
:103D40000A680B91424518D0114604920C924FF02C
:103D5000080817E04FF0010812E000BF4FF002081A
:103D60000EE04FF003080BE04FF0040808E04FF0BE
:103D7000050805E04FF0060802E04FF0070800BF15
:103D80000021049105ADFCF745FA4FF0000909E068
:103D900048F2DE30C0F6000001F09EFF09F1010993
:103DA000C1459DD055F829B0FCF730FA1BF8041C2A
:103DB00001F07F06FCF72EFA022EEFD1DA46002042
:103DC0005AF8082F5346BAF8081000BF1B6853452D
:103DD00010D01B6853450CD01B68534529D01B6875
:103DE00004305345F2D101385245ABF10C0305D1F3
:103DF00024E001305245ABF10C031FD000910821A3
:103E00000822019024A001F067FFDAF8006056450F
:103E1000BED000BFA6F11401384601F05DFF306846
:103E20005045B5D0204601F057FF36685645F1D1D0
:103E3000AEE702305245ABF10C03DFD1009108210F
:103E40000822019018A001F047FFA7E7FCF7E2F96C
:103E500000200DB0BDE8F08F252D2A2E732076208E
:103E6000202073757370656E642074687265616478
:103E70000A00000073656D6170686F726500000074
:103E8000202D2D2D202D2D2D2D2D2D2D2D2D2D2D7C
:103E90002D2D2D0A00000000252D2A2E2A73202505
:103EA0003033642025643A00252D2A2E2A732025DC
:103EB0003033642025640A002DE9F04F8DB00120D5
:103EC00002F062F9041D48F28730C0F6000075A2C6
:103ED000082101F001FF48F2FB35C0F60005284635
:103EE00001F0FAFE284601F0F7FE284601F0F4FE44
:103EF000284601F0F1FE284601F0EEFE284601F0CA
:103F0000EBFE284601F0E8FE284601F0E5FE67A03A
:103F100001F0E2FE002605AF74A50FF2F01A03943B
:103F200005E000BF049E039C002E00F0B680A94669
:103F30003546002E08BF2546FCF768F936B115F85E
:103F4000041C01F07F01012940F0A5802968A142ED
:103F500000F0A1800A680591A2421FD011684D4669
:103F6000A14206921ED00A680791A2421DD0116894
:103F70000892A1421CD00A680991A2421BD0116884
:103F80000A92A1421AD00A680B91A24219D0114696
:103F900004920C924FF0080818E000BF4FF001089F
:103FA0004D4611E04FF002080EE04FF003080BE021
:103FB0004FF0040808E04FF0050805E04FF0060850
:103FC00002E04FF0070800BF00210491FCF722F93E
:103FD0004FF0000906E000BFFCF71CF909F10109E8
:103FE000C1459FD057F829B0FCF710F91BF8041C05
:103FF00001F07F010129EFD1ABF10C06FCF70AF9C2
:104000009BF829000821082200902846334601F039
:1040100063FE9BF8280000F00F01042906D840F346
:10402000030035A151F8200001F056FEDBF81C001A
:10403000C11C00BF11F8032C232A0DD111F8022C4A
:10404000232A0BD111F8012C232A09D111F8042BB2
:10405000232AEFD0043904E0033902E0023900E0FA
:104060000139DBF820206423511ADBF82460014475
:1040700010445943DBF83440B1FBF2F3DBF8101085
:10408000411A5046CDE9004601F026FE09F101092A
:10409000C145A7D146E7FCF7BDF800200DB0BDE84B
:1040A000F08F00BF7468726561640000202D2D2DB3
:1040B00020202D2D2D2D2D2D2D202D2D2D2D2D2D57
:1040C0002D2D2D2D202D2D2D2D2D2D2D2D2D2D203A
:1040D000202D2D2D2D2D2D20202D2D2D2D2D2D2D37
:1040E0002D2D2D202D2D2D0A00000000252D2A2EEE
:1040F0002A73202533642000E0830008F28300083F
:10410000FF83000808840008E98300082030782530
:10411000303878203078253038782020202025301D
:10412000326425252020203078253038782025302D
:1041300033640A00000000002DE9F04F8DB00A2022
:1041400002F022F8071D55A05EA2082101F0C4FD6F
:1041500048F2FB34C0F60004204601F0BDFD2046C5
:1041600001F0BAFD204601F0B7FD204601F0B4FD94
:10417000204601F0B1FD204601F0AEFD204601F0E1
:10418000ABFD204601F0A8FD50A001F0A5FD0024E4
:104190000FF25C1A0FF2701B5FA6039704E000BFDA
:1041A000049C039F002C6CD02546002C08BF3D4684
:1041B000FCF72CF82CB115F8041C01F07F010A293A
:1041C0005DD12968B9425AD00A680591BA421DD01A
:1041D00011680692B9421BD00A680791BA4219D0F9
:1041E00011680892B94217D00A680991BA4215D0ED
:1041F00011680A92B94213D00A680B91BA4211D0E1
:10420000114604920C92082510E000BF01250BE036
:10421000022509E0032507E0042505E0052503E064
:10422000062501E0072500BF00210491FBF7F2FFFE
:1042300005AF03E0013D07F10407B1D0D7F80080D6
:10424000FBF7E4FF18F8041C01F07F09FBF7E2FF1D
:10425000B9F10A0FEED1A8F10C030821D8E9060440
:10426000009008225046019401F036FD18F8030C26
:10427000C007304608BF584601F02EFDDAE7FBF7CD
:10428000C9FF02F0F9FD014648F2CB30C0F600004C
:1042900001F022FD00200DB0BDE8F08F252D2A2E63
:1042A000732020706572696F6469632020207469CF
:1042B0006D656F757420202020202020666C61675A
:1042C0000A00000074696D6572000000202D2D2D1C
:1042D0002D2D2D2D2D2D2D202D2D2D2D2D2D2D2D1B
:1042E0002D2D202D2D2D2D2D2D2D2D2D2D2D0A005B
:1042F000252D2A2E2A7320307825303878203078E2
:104300002530387820000000646561637469766147
:104310007465640A00000000616374697661746505
:10432000640A00000000000080B582B047F65931F1
:10433000072000901BA0C0F600010022C0234FF010
:10434000140CCDF804C002F0DBFA08B102F0C4FC92
:1043500040F2B46040F25021C2F20000C2F200010B
:104360000C22FCF7C1FD40F2FC60C2F200000068C4
:10437000016841F010010160016821F0080101604D
:10438000016821F004010160416921F0800141616F
:10439000016821F002010160FEF7FAFF002002B07F
:1043A00080BD00BF6C656400B0B548F2604448F25F
:1043B0005840C0F60004C0F60000A04209D248F2FE
:1043C0005845C0F6000500BF55F8040B8047A542CC
:1043D000FAD3BDE8B040FFF7A7BF0000000000001F
:1043E0002DE9F04F81B082460078A8B140F27810F4
:1043F00040F27C11C2F20000C2F200010568D1F85F
:104400000080454580F09D8048F233494FF0000B15
:10441000C0F60009002648E048F21440C0F600004B
:1044200001F05AFC40F2781040F27C19C2F2000010
:10443000C2F200090568D9F80070BD421AD248F2EC
:10444000334448F22F48C0F60004C0F6000802E0EA
:104450000835BD420ED22E68062230462146FBF7B3
:10446000E9FF0028F4D1B11D404601F035FCD9F830
:104470000070EDE748F2DE30C0F6000001B0BDE8A4
:10448000F04F01F029BC881C801B39465845B8BF45
:1044900083462DA001F020FC40F27C10C2F2000007
:1044A000D0F800800835454542D22F6806223846AC
:1044B0004946FBF7BFFF0028F4D150460637FBF70B
:1044C000B2FF024650463946FBF7B4FF0028E9D157
:1044D000BBF1000F03D03178304649B9D4E73846F4
:1044E000FBF7A1FF83463E46317830460029CBD00A
:1044F00000203A5C914215D131184B78A3B13A189B
:104500005478A34210D18B78002BBCD09478A3426E
:10451000B9D1CB7853B1D278934207D1097904301D
:104520000029E6D13044AFE7481CADE7C81CABE733
:104530003EB1504631465A4601B0BDE8F04F02F058
:1045400083B801B0BDE8F08F25730A0000000000B9
:104550002DE9F04F9FB08A46044602E00134AAF1EB
:10456000010A20782028F9D00928F7D0BAF1000FE5
:1045700000F09D8004F10309002605E0B24500F03B
:104580009A80A01901364078C0B2092818BF2028A7
:10459000F4D1002E00F0B28040F2781040F27C118D
:1045A000C2F20000C2F200010568D1F800B05D451A
:1045B00080F0A48048F23348B01DC0F60008009097
:1045C00004E000BF08355D4580F098802F68062222
:1045D00038464146FBF72EFF0028F3D1B81D21468F
:1045E0003246FBF727FF0028ECD10098385C002802
:1045F000E8D1D5F80480B8F1000F00F07F800DF10C
:10460000040B78215846FBF7F7FE00200026002215
:10461000214604E0524509D201F8010C0132013172
:1046200011F8013C202BF5D0092BF3D01E2E47D2D8
:1046300052455CD2222B27D1531C4BF826105345F0
:104640004FF0000506F1010638BF012517D20F789B
:10465000222F14D05C2F06D10F4617F8015F222DB0
:1046600004BF931C394611F8017F1A460133002517
:10467000534538BF0125222F01D05345EAD3BDB39E
:1046800001F8010B02320FE001394BF82610013618
:104690000B78092B18BF202B04D0524502D20131D0
:1046A0000132F5E7524523D25245B8D320E000202D
:1046B0001FB0BDE8F08F5646002E7FF46DAF1DE0B1
:1046C00023A001F009FB48F22F440025C0F60004A6
:1046D0005BF82510204601F0FFFA0135B542F7D30B
:1046E00048F2DE30C0F6000001F0F6FA00E02EB12C
:1046F00001A93046C0471FB0BDE8F08F19F8030C80
:1047000010F0DF0F11D019F8020C10F0DF0F0FD0EE
:1047100019F8010C10F0DF0F0DD019F8040B10F090
:10472000DF0FEBD1A9F1040007E0A9F1030004E0D9
:10473000A9F1020001E0A9F10100002101700CA023
:10474000214601F0C9FA4FF0FF301FB0BDE8F08FED
:10475000546F6F206D616E79206172677320212024
:104760005765206F6E6C79205573653A0A0000001A
:1047700025733A20636F6D6D616E64206E6F7420D7
:10478000666F756E642E0A002DE9F04381B048F221
:104790001440C0F6000001F09FFA40F2781040F299
:1047A0007C19C2F20000C2F200090568D9F8007055
:1047B000BD421BD248F2334448F22F48C0F60004F1
:1047C000C0F6000803E000BF0835BD420ED22E68D7
:1047D000062230462146FBF72DFE0028F4D1B11DFC
:1047E000404601F079FAD9F80070EDE748F2DE3082
:1047F000C0F6000001F070FA002001B0BDE8F083BF
:10480000012070470000000080B540F29010C2F215
:104810000000806890F8341001F00F01022908BFF1
:1048200080BD02F091FA20B102A0BDE8804001F005
:1048300053BA80BD4D7573636C6520436F6E74729F
:104840006F6C20726573756D65206572726F720A88
:10485000000000000000000080B540F29010C2F29D
:104860000000806890F8341001F00F014A1E032AFE
:1048700004D210A0BDE8804001F02EBA002918BF74
:1048800080BD02F029FA20B102A0BDE8804001F00D
:1048900023BA80BD4D7573636C6520436F6E74726F
:1048A0006F6C20746872656164206572726F720A41
:1048B000000000004D7573636C6520436F6E747269
:1048C0006F6C20746872656164206973204372653F
:1048D00061746564210A000080B540F29010C2F254
:1048E0000000806890F8341001F00F01022908BF21
:1048F00080BD02F029FA20B102A0BDE8804001F09D
:10490000EBB980BD4D7573636C6520436F6E747237
:104910006F6C2073757370656E64206572726F7250
:104920000A0000000000000080B540F2940C41F63F
:104930005860C2F2000CC2F2000009A10022CCF8BB
:1049400000000020CCF804000CF10C0000234FF014
:10495000C80EACF808E0BDE8804001F015BD00BF0E
:104960007368656C6C5F72780000000000000000E6
:104970002DE9F04F81B0012808DC48F2ED00C0F6C7
:10498000000001B0BDE8F04F01F0A6B905468A4627
:1049900048680FF2E45101F0EFFD00283ED1042DEC
:1049A00040F08C80DAF80800FBF753FD0646DAF891
:1049B0000C00FBF74EFDF6B20B2E10D880B2002192
:1049C000B1EB103F10D140F20401C2F2000101EB43
:1049D0008601C86047F6B370C0F6000008E048F2F0
:1049E0001710C0F6000003E048F22A10C0F60000DD
:1049F00001F072F940F204003146C2F2000000EB0F
:104A00008600C26847F6C870C0F6000001F064F97D
:104A100047F6B370C0F6000001F05EF9DAF8040062
:104A20000FF2585101F0A8FD08BB032D0DD1DAF8A3
:104A30000800FBF70EFDC0B20B280DD840F2502144
:104A4000C2F2000131F820100DE00FF2345001B035
:104A5000BDE8F04F01F040B948F21710C0F6000071
:104A600001F03AF900210FF2305001F035F948F227
:104A7000BC11DAF80400C0F6000101F07DFD002849
:104A80003ED1042D1AD1DAF80800FBF7E2FC064605
:104A9000DAF80C00FBF7DDFCF6B20C2E17D881B269
:104AA0000022B2EBD12F17D140F20401C2F2000173
:104AB000885547F6B370C0F600000FE048F240108A
:104AC000C0F6000001B0BDE8F04F01F005B948F2B2
:104AD0001710C0F6000001E00FF2C04001F0FCF832
:104AE00040F204003146C2F20000825D0FF2C44081
:104AF00001F0F2F847F6B370C0F6000001F0ECF8F0
:104B0000DAF804000FF2C44101F036FDE8B348F2D0
:104B1000B911DAF80400C0F6000101F02DFD0028FB
:104B20005CD0DAF804000FF2F44101F025FD002812
:104B300040F09C8047F68C70C0F6000001F0CCF885
:104B40000FF2DC4001F0C8F848F26000C0F6000047
:104B500001F0C2F848F29E00C0F6000001F0BCF877
:104B600048F22B00C0F6000001F0B6F847F6E670F8
:104B7000C0F6000001F0B0F848F27410C0F6000072
:104B800001B0BDE8F04F01F0A7B8052D4DDBE807F7
:104B90006FD14FEA550B0126012403E00134E6B240
:104BA000B3456FD9F00004305AF800502846FBF79F
:104BB00050FC0004F2D177005AF82700FBF749FCBB
:104BC0000646284601F024FD0228E7D3F0B200286B
:104BD000E4D15AF8270001F01BFDDFE7022D00F0B9
:104BE0008880032D9DD1DAF808000FF2E43101F03E
:104BF000C3FC002800F0CF80DAF80800F5A101F02E
:104C0000BBFC002800F02B8148F2BC11DAF8080048
:104C1000C0F6000101F0B0FC002800F06481EEA0B5
:104C200001B0BDE8F04F01F057B8042D1ED1DAF8FD
:104C30000800FBF70EFC0546DAF80C00FBF709FC50
:104C4000ECB20B2C00F2A28080B20021B1EB103F3D
:104C500040F0E88040F20401C2F2000101EB84015F
:104C6000C86047F6B370C0F60000DFE001B0BDE8F1
:104C7000F08F48F25110C0F6000001B0BDE8F04FCF
:104C800001F02AB848F2171648F22A1847F6B37707
:104C90000120C0F60006C0F600084FF00009C0F67B
:104CA0000007012407E000BF01F016F80134E0B26C
:104CB000834540F2CB80C5005AF83000FBF7C9FBB2
:104CC000291D05465AF80100FBF7C3FBEAB201466D
:104CD0000B2A3046E8D889B24046B9EB113FE3D100
:104CE00040F20400C2F2000000EB8200C1603846CE
:104CF000DAE747F6A770C0F6000000F0EDFF40F2DB
:104D0000040547F6D974C2F20005C0F6000400217C
:104D10002046EA6800F0E0FF2A690121204600F001
:104D2000DBFF6A690221204600F0D6FFAA69032151
:104D3000204600F0D1FFEA690421204600F0CCFFB4
:104D40002A6A0521204600F0C7FF6A6A062120462C
:104D500000F0C2FFAA6A0721204600F0BDFFEA6A00
:104D60000821204600F0B8FF2A6B0921204600F0F8
:104D7000B3FF6A6B0A21204600F0AEFFAA6B0B213D
:104D8000204601B0BDE8F04F00F0A6BF48F2171072
:104D9000C0F600004AE047F6A770C0F6000000F039
:104DA0009BFF40F2040647F6D975C2F20006C0F632
:104DB000000500212846F26800F08EFF32690121CB
:104DC000284600F089FF72690221284600F084FF1E
:104DD000B2690321284600F07FFFF26904212846CA
:104DE00000F07AFF326A0521284600F075FF726AEA
:104DF0000621284600F070FFB26A0721284600F01D
:104E00006BFFF26A0821284600F066FF326B092129
:104E1000284600F061FF726B0A21284600F05CFF13
:104E2000B26BA3E048F22A10C0F6000000F054FF75
:104E300040F204002146C2F2000000EB8400C26888
:104E400047F6C870C0F6000000F046FF47F6B370A2
:104E5000C0F6000001B0BDE8F04F00F03DBF6CA00F
:104E600000F03AFF40F2502647F6D975C2F200062C
:104E7000C0F6000500212846326800F02DFF726858
:104E80000121284600F028FFB2680221284600F0E0
:104E900023FFF2680321284600F01EFF3269042137
:104EA000284600F019FF72690521284600F014FF1A
:104EB000B2690621284600F00FFFF2690721284653
:104EC00000F00AFF326A0821284600F005FF726AE6
:104ED0000921284600F000FFB26A0A21284600F0A6
:104EE000FBFEF26A42E045A000F0F6FE40F2040646
:104EF00047F6D975C2F20006C0F600050021284623
:104F0000327800F0E9FE72780121284600F0E4FED4
:104F1000B2780221284600F0DFFEF278032128460D
:104F200000F0DAFE32790421284600F0D5FE7279CD
:104F30000521284600F0D0FEB2790621284600F06F
:104F4000CBFEF2790721284600F0C6FE327A08210E
:104F5000284600F0C1FE727A0921284600F0BCFE06
:104F6000B27A0A21284600F0B7FEF27A0B212846D1
:104F700000F0B2FED5E500BF7377000072000000BC
:104F8000506172616D65746572206E75626D6572D7
:104F9000206572726F720A0025640A005468726597
:104FA00073686F6C642076616C7565206572726FD2
:104FB000720A000043686E2025642C2074687265B4
:104FC00073686F6C642025640A000000770000009D
:104FD0007365740061646300506C6561736520697A
:104FE0006E707574202770726563207261203C7347
:104FF00065747C6164633E270A0000007468726512
:1050000073686F6C642076616C75653A0A00000005
:105010006164632076616C75653A0A003F000000A8
:1050200055736167653A0A002DE9F04F84B0DDF8E9
:105030003CB00FF254445FEA4B670FF2384758BF59
:105040003C465FEACB674FF0300E48BF2BF0010BB8
:10505000DDE90D9A5FEACB7708BF4FF0200E5FEADB
:105060008B7724D44FF00008002A60D00A2B2FD170
:105070004CF6CD4CD1464FF0FF33CCF6CC4CEA4643
:10508000A2FB0C750AEB03060A2A03F101034FEA9F
:10509000D50505EB8507A2EB47072A46E75D777044
:1050A000EED203F1010CCA46DDF834904DE0B2F1C6
:1050B000FF3F08DD5FEA4B7735D4202707EA8B08EE
:1050C000002AD3D133E052424FF02D080A2BCFD023
:1050D00000266F464FF0000C02F00F03B6EB121FD4
:1050E000E35C07F80C3028D0130907EB0C0503F03C
:1050F0000F03B6EB122FE35C6B7021D0130A03F0A1
:105100000F03B6EB123FE35CAB701CD0130B0CF13A
:10511000040C03F00F03B6EB124F4FEA1242E35CAC
:10512000EB70D9D111E04FF02B08002A9ED130222C
:105130008DF800204FF0010C07E00CF1010C04E0A9
:105140000CF1020C01E00CF1030C5646D445C8BF2B
:1051500066461BF0110FA9EB060267D00746B8F1AF
:10516000000F06D08F42A2F1010238BF87F80080FD
:1051700001375FEACB6033D4501EC0F29D8012F03D
:10518000030400F0A4808F4207F1010538BF87F8BF
:1051900000E0012C40F0A480023A2F460328C0F022
:1051A0009A80101D7A1C8F4238BF87F800E08A422F
:1051B000A0F1040038BF82F800E0BA1C8A4238BF70
:1051C00082F800E0FA1C04378A4238BF82F800E017
:1051D0000328E7DC4FF0FF323D46D44503DB6FE0A8
:1051E0003D46D4456CDAA6EB0C006FEA0C0310F0D8
:1051F000030706EB030E65D08D42A6F1010401D230
:1052000030202870012F05F1010009D08842A6F155
:10521000020401D230230370022F05F1020079D17C
:105220000546BEF1030F80F0808095E043460024E0
:10523000B8F1000F18BF0123002AC8BF0124234082
:10524000D41A621EFFF68AAF5B42F7434B449D1BA4
:1052500003EB070915F0030A50D0884201D220223F
:105260000270BAF1010F00F1010740F0D780A21ED1
:105270003846DDF838A0B9F1030F44D304322024B6
:10528000431C884238BF04708B42A2F1040238BF2D
:105290001C70831C8B4238BF1C70C31C04308B42B3
:1052A00038BF1C70032AEBDC4FF0FF320746B8F121
:1052B000000F7FF457AF5CE73D460246D44592DBD2
:1052C000284649E03446BEF1030F2ED244E00246A0
:1052D0000328BFF466AF4FF0FF32D445F0DA82E71F
:1052E0008D4238BF85F800E0022C07F1020540F03E
:1052F000A780033A2F460328EDD352E7DDF838A004
:10530000B9F1030FBAD24FF0FF32B8F1000F7FF4BA
:1053100029AF2EE78842A6F1030401D2302303709F
:1053200003352846BEF1030F16D33027284600BFA9
:10533000431C884238BF07708B42A4F1040438BF75
:105340001F70831C8B4238BF1F70C31C04308B42FC
:1053500038BF1F70A445EBDBBAF1000F33D06B46AA
:105360009F1E04E01E1D0430042E9C462BDD884247
:1053700003D207EB0C035B780370BCF1010F00F163
:1053800001031FDD8B4202D217F80C601E70BCF1C6
:10539000030F00F1020315DB8B4204D207EB0C066E
:1053A00016F8016C1E70BCF1040F00F103062FDB30
:1053B0008E42ACF10403D5D207EB0C0515F8025C64
:1053C0003570CFE71846012A25DB2023884200F1FB
:1053D000010738BF0370012A16DD8F4238BF3B70CA
:1053E000032A00F102070FDB8F4238BF3B70042A0B
:1053F00000F1030708DB043A8F4238BF3B70171DEA
:105400000430042FE2DC06E0384604B0BDE8F08F3B
:105410003046012AD9DA04B0BDE8F08F8F4201D2BC
:1054200020223A70BAF1020F00F1020713D1E21EF6
:105430003846DDF838A0B9F1030FFFF464AF1DE77B
:1054400003378D4238BF85F800E0043A3D46032813
:10545000BFF4A7AE3FE78F4201D220223A7003305B
:10546000221F0746DDF838A0B9F1030FBFF406AFDD
:1054700049E700BF3031323334353637383961626D
:1054800063646566000000003031323334353637EE
:105490003839414243444546000000000000000006
:1054A000B0B501FB00F4204600F032FC054620B107
:1054B00000212846224600F04FFD2846B0BD0000DE
:1054C000B0B548F2584448F24440C0F60004C0F673
:1054D0000000A04228BFB0BD48F24445C0F6000518
:1054E00055F8040B8047A542FAD3B0BD0000000078
:1054F00080B5FAF78BFE40F20C11C2F200014A8827
:1055000001324A80BDE88040FAF784BE0000000006
:1055100010B5FAF77BFE40F20C14C2F20004618869
:10552000013961800AB2002A03DDBDE81040FAF7B4
:1055300071BE00216180FAF76DFEA068002808BFE7
:1055400010BDBDE8104000F08FBE0000000000005C
:105550002DE9F04100285CD040F2CC070446C2F2AD
:105560000007796809B120468847F868A04250D8FA
:105570003869A04298BFBDE8F08107F120084FF0DC
:10558000FF314046A4F10C0600F036FF34F80A0C57
:1055900018B13088B0F5F55F0AD025A000F09CFB6B
:1055A00034F80A2C29A034F80C3C314600F094FB66
:1055B0004FF4F55044F80C0CD7F814C0B44501D999
:1055C000B4467E6154F8082CF868B11A8318BD6996
:1055D000091AB3422944B9610FD0598869B93969A8
:1055E0008B420AD09C4501D1B4467E615A6844F88A
:1055F000082C5968331A01448B6054F8043CC518D0
:10560000B54201D0698831B14046BDE8F04100F0B3
:10561000CBBEBDE8F081B44508BF7D616A6054F837
:10562000081C084483604046BDE8F04100F0BCBE61
:10563000746F206672656520612062616420646118
:10564000746120626C6F636B3A0A00006D656D3A9D
:10565000203078253038782C207573656420666C8E
:1056600061673A2025642C206D6167696320636F50
:1056700064653A203078253034780A000000000054
:1056800040F62810C2F20000704700000000000041
:1056900040F62810C2F2000000F58050704700006C
:1056A00010B5FDF7F5FA40F2480044F6D351C2F2C6
:1056B0000000C1F262010068A0FB01014FF0FF3061
:1056C00000EB91110020B0EB116F0DD14EF21002E2
:1056D000FF23CEF2000251604EF62351CEF20001BC
:1056E0000B70906007201060FFF7EAFEFFF7C8FF1D
:1056F0000446FFF7CDFF01462046BDE8104001F00B
:1057000053B8000000000000B0B540F29405C2F2AA
:10571000000505F10C0407E0B5F90800E8B94FF001
:10572000FF31204600F068FE69680220C1F34E0296
:1057300081EA1143B2EB514F08BF03F0010000288A
:10574000EDD00128E8D0480C904201D9801AE5E755
:10575000B5F90830801A1844E0E7B5F908002B685D
:10576000441E985C944206D14FF6FE72914381F03C
:1057700001016960B0BD8A1C520862F34F01696083
:10578000B0BD00000000000010B5044640F29C10BF
:10579000C2F20000002180F87010204600F038FFAF
:1057A000002808BF10BD41F21C020021C4F2010212
:1057B0004FF00D0C04E0635C0131D36081421FD0D7
:1057C00013685B065CBF13685FEA436305D4136824
:1057D0005B0602D413685B06F2D5635C0A2BEBD13F
:1057E000C2F80CC013685B065CBF13685FEA4363D2
:1057F000E1D413685B06DED413685B06F2D5DAE702
:1058000010BD00000000000010B540F62411044651
:10581000C2F20001096829B104F128008847002874
:1058200008BF10BD48F2C120616CC0F6000000F056
:1058300053FA48F28020A16AC0F6000000F04CFA4A
:1058400048F28D20E16AC0F6000000F045FA48F207
:105850009A20216BC0F6000000F03EFA48F2A72023
:10586000616BC0F6000000F037FA48F2B420A1687E
:10587000C0F6000000F030FAE168C8A000F02CFA91
:105880002169CAA000F028FA6169CCA000F024FACE
:10589000A169CEA000F020FAE169D0A000F01CFAC6
:1058A000216AD2A000F018FA616AD4A000F014FABC
:1058B000A16BD6A000F010FAE16BD8A000F00CFAB2
:1058C000216CDAA000F008FA2078400709D448F2E9
:1058D000CC10C0F6000000F0FFF92078C0060ED50D
:1058E00013E001F0A9F9014648F2E610C0F6000005
:1058F00000F0F2F9FEF7E0FA2078C00605D448F28D
:105900000320C0F6000000F0E7F94EF62954CEF26D
:105910000004D4F80300800705D548F25E20C0F6E5
:10592000000000F0D9F9D4F80300400040F1F780FE
:10593000207830B348F23220C0F6000000F0CCF9F5
:10594000217848F24530C0F6000000F0C5F9207813
:10595000C00745D1207880074BD42078400751D428
:105960002078000757D42078C0065DD494F9000051
:10597000B0F1FF3F60DD48F2DE30C0F6000000F01D
:10598000ABF914F8010C002800F0948048F21120C3
:10599000C0F6000000F0A0F914F8011C48F25B30DA
:1059A000C0F6000000F098F914F8010CC00750D1BF
:1059B00014F8010C800756D414F8010C00075CD4CD
:1059C00014F8010CC00662D414F9010CB0F1FF3FC9
:1059D00068DD48F2DE30C0F6000000F07DF969E0D5
:1059E00048F23030C0F6000000F076F920788007E9
:1059F000B3D548F22530C0F6000000F06DF92078EC
:105A00004007ADD548F22330C0F6000000F064F93D
:105A100020780007A7D548F21930C0F6000000F042
:105A20005BF92078C006A1D584A000F055F994F95F
:105A30000000B0F1FF3F9EDC48F23E20D4F80F108A
:105A4000C0F6000000F048F914F8010C00289DD1C0
:105A500030E048F2F420C0F6000000F03DF914F800
:105A6000010C8007A8D548F2EA20C0F6000000F03B
:105A700033F914F8010C0007A2D548F21830C0F62B
:105A8000000000F029F914F8010CC0069CD548F27A
:105A90000F30C0F6000000F01FF914F9010CB0F14E
:105AA000FF3F96DC48F24E20D4F80B10C0F6000001
:105AB00000F012F9B4F8010088B348F22420C0F6CF
:105AC000000000F009F9B4F8011048F27130C0F696
:105AD000000000F001F9B4F80100C0072BD1B4F8C0
